:020000040800F2
:1000000090FD00205D0200085F230008F120000839
:100010005D23000831050008A52700080000000046
:100020000000000000000000000000009D0100082A
:100030003305000800000000F901000861230008F2
:1000400077020008770200087702000877020008AC
:10005000770200087702000877020008770200089C
:10006000770200087702000877020008770200088C
:10007000770200087702000877020008770200087C
:10008000770200087702000877020008770200086C
:10009000770200087702000877020008D3060008FC
:1000A0007702000821240008770200087702000880
:1000B000770200087702000877020008770200083C
:1000C000770200087702000877020008770200082C
:1000D000770200087702000877020008770200081C
:1000E000B5060008770200087702000877020008CA
:1000F00077020008770200087702000877020008FC
:1001000077020008770200087702000877020008EB
:10011000F52400087702000877020008770200083B
:1001200077020008770200087702000877020008CB
:1001300077020008850500087702000877020008AA
:1001400077020008770200087702000877020008AB
:10015000770200087702000877020008770200089B
:10016000770200087702000877020008770200088B
:1001700077020008770200087702000800000000FC
:100180007702000877020008DFF80CD000F036F99B
:10019000004800478D6F000890FD00202C4B196827
:1001A0000868B0E8F04F80F30988BFF36F8F4FF015
:1001B000000080F3118870470000000008480068C4
:1001C000006880F308884FF0000080F3148862B65E
:1001D00061B6BFF34F8FBFF36F8F00DF00BF00BF6B
:1001E00008ED00E0DFF80C00016841F470010160E7
:1001F000704700BF88ED00E0EFF30980BFF36F8F19
:10020000134B1A681EF0100F08BF20ED108A20E96A
:10021000F04F106009B44FF0500080F31188BFF325
:100220004F8FBFF36F8F12F08BFD4FF0000080F304
:10023000118809BC19680868B0E8F04F1EF0100F6B
:1002400008BFB0EC108A80F30988BFF36F8F704746
:1002500024010020EFF30580704700000648804726
:1002600006480047FEE7FEE7FEE7FEE7FEE7FEE79B
:10027000FEE7FEE7FEE7FEE711240008890100081B
:100280002DE9F05F0546002092469B4688460646CB
:10029000814640241BE0284641464746224600F05E
:1002A0009DF853465A46C01A914110D3114618463C
:1002B000224600F084F82D1A67EB01084F462246CB
:1002C0000120002100F07BF817EB00094E41201EB1
:1002D000A4F10104DFDC484631462A464346BDE826
:1002E000F09FA0F16101192900D820387047000063
:1002F0000649074A0868504343F23902104408602F
:10030000400870470149086070470000A4010020C0
:100310006D4EC64110B5431A934209D2831888180E
:1003200003E010F8011D03F8011D521EF9D210BDA3
:1003300040EA01039B0703D009E008C9121F08C067
:10034000042AFAD203E011F8013B00F8013B521EE7
:10035000F9D210BDD2B201E000F8012B491EFBD248
:1003600070470022F6E710B513460A4604461946C0
:10037000FFF7F0FF204610BD30B5044600200346CD
:1003800000E05B1C934203D2E05CCD5C401BF8D0E4
:1003900030BD30B50B46014600202022012409E083
:1003A00021FA02F59D4205D303FA02F5491B04FA2E
:1003B00002F52844151EA2F10102F1DC30BD202A0D
:1003C00004DB203A00FA02F1002070479140C2F1AC
:1003D000200320FA03F3194390407047202A04DBDE
:1003E000203A21FA02F00021704721FA02F3D040AE
:1003F000C2F120029140084319467047064C074D50
:1004000006E0E06840F0010394E8070098471034E4
:10041000AC42F6D3FFF7BCFEC0420108E04201083F
:1004200030B58C1810F8012B12F00F0301D110F821
:10043000013B120906D110F8012B03E010F8015B13
:1004400001F8015B5B1EF9D101E001F8013B521E8E
:10045000FBD1A142E6D3002030BD000010B512F060
:1004600031FD0149486110BD000000207CB501202C
:100470001A494502CDE9000100232A4618A11B486C
:1004800013F0F2FA15490220091DCDE900010023FD
:100490002A4617A1194813F0E7FA10480324083038
:1004A000CDE9004000232A4615A1184813F0DCFAD4
:1004B0000A4800230C30CDE900402A4614A1174811
:1004C00013F0D2FA054904201031CDE900010023D0
:1004D0002A4613A1154813F0C7FA7CBD000000207E
:1004E000765461736B4C4544310000003D2A01088D
:1004F000765461736B4C454432000000652A010854
:10050000765461736B6B657900000000B52D0108AE
:10051000765461736B4D736750726F008D2A0108BA
:10052000765461736B54435000000000A52D010800
:10053000FEE77047064908B509684FF4FA52B1FB67
:10054000F2F14143009100BF491E0091FBD208BD6A
:100550004C00002038B50446006800F580508169E1
:1005600041F480118161206800F58050806900901D
:100570000120FFF7DFFF2068009900F580508161BE
:1005800038BD0000014800F06ABA0000D8320020EF
:100590002DE9F041044621B14FF40060E060C00055
:1005A000A060E0690025002861D028462368402625
:1005B00019683A4A1140D4E902273A43024342F407
:1005C00000700843186020680768012000F0E2F816
:1005D000206807602068466020684668012000F0B7
:1005E000D9F820684660206885602068C560216869
:1005F00088694FF64172104040F0800088612068A1
:100600008669012000F0C6F8206886612068C5610F
:100610002068C569012000F0BDF82068C561226826
:1006200002F5805290691E4908401E4901439161BC
:10063000206800F580508569012000F0ABF8206843
:1006400000F5805085612068174900F580500160F1
:10065000206800F580500568012000F09BF82068B4
:1006600000F580500560A069012803D009E04FF42F
:1006700080609BE7206800F58050C1690B4A1143F8
:10068000C16160690A4982880A640278D0F8010071
:1006900042EA00204864BDE8F08100000F8120FF9D
:1006A000233FDEF8040020028020C1024000010048
:1006B0000080024010B54FF4806000F04BFD4FF415
:1006C000805000F047FDBDE810404FF4004000F0BE
:1006D00041BD4FF4807000F03DBD72B6FEE72DE9DC
:1006E000F0410446876D00F04BFE064694F8350055
:1006F0000025022806D08020606584F8345001204F
:10070000BDE8F0812068016821F0160101602068D1
:10071000416921F080014161206C08B9A06C20B1D1
:100720002068016821F0080101602068016821F05B
:10073000010101600CE000F023FE801B052807D9B1
:1007400020206065032084F8350084F83450D7E712
:1007500020680068C007EED194F85C103F20884004
:10076000B860012084F8350084F834500020C7E7D1
:1007700090F83510022903D080214165012070478F
:10078000052180F835100068016821F00101016041
:100790000020704770B5044600F0F2FD0546601C6D
:1007A00002D004480078044400F0EAFD401BA04257
:1007B000FAD370BD400000202DE9F041054690F8C5
:1007C00045000C46012875D0012685F845600220B9
:1007D00085F84400002C70D02A6811684148014017
:1007E000D4E900031843D4E902373B431843AB680C
:1007F00018432369184363691843EB681843A369D6
:100800001843E3691843236A1843636A1843A36AC9
:10081000184308431060286807680120FFF7BAFFF3
:1008200028680760D4E90B010843D4E90D1211438D
:100830000843E16B0843216C0843616C0843A16CD9
:10084000084329684860286847680120FFF7A2FF2D
:10085000286847602968E06C88602968206DC86056
:100860002A6891694FF641700140D4E91603184394
:10087000B4F85470236E43EA07431843636E184379
:10088000A36E184308439061286887690120FFF729
:1008900081FF28688761D4E91B0108432968C86182
:1008A0002868C4690120FFF775FF2868C46114E057
:1008B00000E002E00220BDE8F0812968086820F429
:1008C0009042D5E902031843104308602868046881
:1008D0000120FFF75FFF2868046005F8446F0020DF
:1008E0006870E8E70F8120FF2DE9F04390F845405C
:1008F0000025012C0DD04FF0010C80F845C00224DA
:1009000080F8444044F2F4574FF000495E1E816283
:1009100017E00220BDE8F08301EB4514C4F8009015
:10092000C5EBC51808EB480802EB8808C4E9017854
:10093000B54204D204F12008C4F80C8000E0E16064
:100940006D1C9D42E8D3026802F58052D16080F8A8
:1009500044C0002180F845100846DBE72DE9F0434C
:10096000914690F845200024012A0AD0012680F8FB
:100970004560022280F844204FF4801C5D1EC16255
:100980001BE00220BDE8F08301EB4412C2F800C076
:10099000C4EBC41707EB470809EB88079760C769E2
:1009A0001FB9176847F440071760AC4203D202F141
:1009B0002007D76000E0D160641C9C42E4D3026849
:1009C00002F58052116180F84460002180F84510E2
:1009D0000846D7E7704730B590F845100023012945
:1009E00008D0012280F84520022180F8441000241C
:1009F000816A1AE0022030BD0D685B1CC5F3012539
:100A0000022D0AD00D6815F4407F09D04163836B35
:100A10005B1C8363012B12D012E08263016302E04E
:100A2000856B6D1C8563C96881620D68002D01DBD3
:100A3000042BE1D300F8442F4470012030BD016342
:100A40000B68C3F30D431B1FC363036B9B680364F5
:100A5000C96840F8281F02774477002030BD70B580
:100A60000446006800F5805041694FF000054906D2
:100A70004FF0010608D5204600F0ECF9206840212F
:100A800000F58050416109E04069C0070AD0204666
:100A900000F0EEFA206800F58050466184F844606A
:100AA00084F8455020684FF4803100F58050416152
:100AB000206800F58050406900040CD52046FFF7FF
:100AC00089FF20684FF4004100F58050416184F8AF
:100AD000446084F8455070BD2DE9FC474FF0000696
:100AE0000400B146009603D094F8440018B107E022
:100AF0000120BDE8FC8784F84560204600F0E2F85C
:100B00006648016841F480410160006800F480405B
:100B100001906348016821F4000101600168226AC4
:100B200011430160206800F58050016841F0010127
:100B3000016000F025FC05464FF4FA7709E000BF9C
:100B400000F01EFC401BB84203D9032004F8440FF8
:100B500067E0206800F580500068C007F0D1206889
:100B6000006920F01C0500F083FD4E494E4A014407
:100B7000914202D245F0080516E04C494C4A014426
:100B8000914202D245F00C050EE04A494A4A01441E
:100B9000914209D3494908444949884202D245F063
:100BA000040501E045F01005206805614FF400429E
:100BB0000021204600F05EFA0125A8BBFF20FFF7C8
:100BC000E9FD606888B300F0DBFB804641F28837BE
:100BD0006A460121204600F0FBF800F0D1FBA0EBB3
:100BE0000800B84217D800984007F1D54FF480525A
:100BF0000021204600F03EFAB0B900F0C1FB80466B
:100C00006A460121204600F0E3F800F0B9FBA0EBB2
:100C10000800B8420AD901212046FFF7B9FC04F8C0
:100C2000445F0320667064E724E018E000988006C3
:100C3000E6D56A461021204600F0CAF8D0B90098DF
:100C4000410703D54FF40061E16000E0E6608007F2
:100C500001D5A66019E04FF48040A06015E0E0687F
:100C6000A168C00840EA510082B20021204600F08D
:100C700001FA30B101212046FFF78AFC84F8445084
:100C800036E740F6FF70FFF785FD49462046FFF73F
:100C90007FFC84F8445000202BE7000044380240D9
:100CA0000438014000D3CEFEC0E1E40040F1E9FD8C
:100CB00040787D0100796CFC005A6202001F0AFA3C
:100CC00080F0FA02F0B587B0044614216846FFF7B9
:100CD00048FB3949206888426CD1384800240168B3
:100CE00041F000710160016801F000710591016837
:100CF00041F080610160016801F080610591016847
:100D000041F000610160016801F000610591016836
:100D100041F004010160016801F0040105910168DE
:100D200041F001010160016801F0010105910168D4
:100D300041F0400101600068022500F0400005908C
:100D40003220CDE9000502AA03260B2782E8D00055
:100D500069461B4800F00AFA8620CDE9000502AA80
:100D6000694682E8D000174800F000FA4FF4D040FE
:100D7000CDE9000502AA694682E8D000124800F0D9
:100D8000F5F9002205213D2000F086FB3D2000F012
:100D900075FB0E4C00220421204600F0ECFA3720AF
:100DA000FFF7F8FC01220421204600F0E4FA372086
:100DB000FFF7F0FC07B0F0BD008002403038024081
:100DC00000080240000002400018024000040240F7
:100DD0002DE9F047044690F84400914682281DD042
:100DE000822084F84400226810694FF6FF7500F0F5
:100DF0001C03208A05EAC02018434FF4F86303EA75
:100E00008111014321F0020040F00105156100F05D
:100E1000B7FA064601274FF4803810E00220BDE8FB
:100E2000F08700BF00F0ACFA801B404505D304F802
:100E3000447F002060700320F1E720680569E8071F
:100E4000F0D12068406981B2C9F8001084F844707C
:100E50000020E4E70148006808F05CBB18000020AF
:100E6000F8B5044690F84500012839D0012584F8EA
:100E70004550022084F8440020680026016841F0B3
:100E8000080101602068006800902846FFF752FBC7
:100E90002168009808602068016841F00401016041
:100EA0002068006800900120FFF744FB216800984B
:100EB00008602046FFF74EFB206800F580508169EE
:100EC00041F400518161206800F58050816941F052
:100ED0000201816184F8445084F845600020F8BD27
:100EE0000220F8BDF8B5044690F84500012839D035
:100EF000012584F84550022084F84400206800F55C
:100F00008050816921F400518161206800F5805092
:100F1000816921F00201816120680026016821F0C9
:100F2000040101602068006800900120FFF702FBC7
:100F30002168009808602046FFF70CFB20680168D4
:100F400021F0080101602068006800900120FFF78F
:100F5000F1FA21680098086084F8445084F84560EC
:100F60000020F8BD0220F8BDF0B590F84520002320
:100F7000012A11D0012780F84570022280F8442010
:100F8000002459B1C66A3268002A0ADA122100F830
:100F9000441F44700120F0BD0220F0BD00F8447FE2
:100FA000F7E740F2F455A9420BD9B1FBF5FCB1FBD0
:100FB000F5F205FB1C1CBCF1000F00D0521C012AED
:100FC00043D1326842F040523260C26AC1F30C0130
:100FD0005160C16A0A6842F000420A60C16AC96889
:100FE000C16234E0D6F800C02CF0405CC6F800C006
:100FF00033B9C66AD6F800C04CF0805CC6F800C0B1
:10100000C66A7560561EB34214D1C66AD6F800C0CF
:101010004CF0005CC6F800C0C2F10106C6EBC61673
:1010200006EB4606D0F82CC001EB8606C6F30C068C
:10103000CCF80460C66AD6F800C04CF0004CC6F884
:1010400000C0C66A5B1CF668C6629342CAD30168D8
:1010500001F580514A69520705D504224A610168A9
:1010600001F580514C6000F8447F44700020F0BDD1
:10107000704700002DE9F041044690F844004228F2
:101080001ED0422084F84400236818694FF6FF768A
:1010900000F01C05208A06EAC02028434FF4F865BA
:1010A00005EA8111014390B241F0030558612068BF
:1010B000056100F065F9064601274FF4803810E01D
:1010C0000220BDE8F08100BF00F05AF9801B4045C6
:1010D00005D304F8447F002060700320F1E7206806
:1010E0000569E807F0D184F84470EAE710B54FF4D9
:1010F0000041174A884206D1104600F02FF9002817
:1011000025D101201FE04FF48051884206D11046BE
:1011100000F024F900281AD1022014E04FF4806175
:10112000884206D1104600F019F900280FD103209B
:1011300009E04FF48071884209D1104600F00EF9A1
:10114000002804D10420BDE8104001F07BBD10BD93
:1011500000180240044910B50A68024202D0086033
:10116000FFF7C4FF10BD0000143C01402DE9F84F0B
:10117000DFF8BCA1002201250AF1040B03264FF081
:101180000F090BF1040E00BF0B6805FA02F42340AF
:10119000A34270D10F7907F00307012F01D0022F6E
:1011A00016D187684FEA420806FA08FC27EA0C07BE
:1011B000D1F80CC00CFA08FC4CEA070CC0F808C0C7
:1011C0004768A7430C79C4F3001494403C4344603F
:1011D0000C79E443A4070AD0C4684FEA420C06FA2B
:1011E0000CF7BC438F6807FA0CF72743C7600C79EC
:1011F00004F00304022C12D1D40800EB840CDCF8B8
:1012000020405707FF0E09FA07F824EA0804D1F82E
:10121000108008FA07F848EA0408CCF8208004682F
:101220004FEA420C06FA0CF7BC430F7907F00307AC
:1012300007FA0CF7274307604C6814F4403F70D05E
:101240003C4C276847F480472760246822F0030756
:1012500004F480440094384C07EB040CDCF8084894
:1012600097074FEA177809FA08F7BC43334FB8429B
:1012700002D1002724E054E0314FB84201D10127C8
:101280001EE0304FB84201D1022719E02E4FB8427C
:1012900001D1032714E02D4FB84201D104270FE0FC
:1012A0002B4FB84201D105270AE02A4FB84201D19D
:1012B000062705E0284FB84201D1072700E008279C
:1012C00007FA08F72743CCF80878DAF800405746C1
:1012D000D1F804C09C435FEACC3C00D51C433C6081
:1012E000DBF800405F46D1F804C09C435FEA8C3CC9
:1012F00000D51C433C60DEF800407746D1F804C0BE
:101300009C435FEACC2C00D51C433C60084F0C3753
:101310003C68D1F804C09C435FEA8C2C00D51C4388
:101320003C60521C102AFFF42FAFBDE8F88F00007C
:10133000003C0140443802400030014000000240BF
:101340000004024000080240000C0240001002406D
:101350000014024000180240001C024000690840CE
:1013600000D001207047426921EA02030A4043EAA3
:101370000241816170470AB1816170470904FBE74E
:1013800001488068704700004000002002488168E2
:101390000278114481607047400000200B4810B56E
:1013A000016841F400710160016841F480610160ED
:1013B000016841F480710160032000F08DF80F2076
:1013C00000F006F800F03EF8002010BD003C02409E
:1013D00010B5014688B00022192000F05DF81920F0
:1013E00000F04CF813480024016841F0010101604D
:1013F000006805A900F001000690684600F018F9A1
:1014000000F04CF90C494000B0FBF1F10C480B4ADC
:10141000491E026040F2E732C0E90324C0E901142A
:1014200000F034FB10B1012008B010BD044800F0FA
:101430005BFBF9E74438024040420F0000000140E6
:10144000F00100200C4882B0016841F48041016045
:10145000006800F4804000900748001F016841F0D8
:10146000805101600068002200F0805000900F2140
:10147000901E02B000F010B844380240002809DB8A
:1014800000F01F02012191404009800000F1E0209E
:10149000C0F8001170470000F0B40E4B1B680C46FA
:1014A000C3F30223C3F10705042D00D90425191D38
:1014B000072901D2002300E0DB1E012606FA05F110
:1014C000491E214099409E40761E16403143F0BC93
:1014D00001F07AB90CED00E0064900F00702086857
:1014E0004FF6FF03184040EA0220034A1043086009
:1014F000704700000CED00E00000FA052DE9F04710
:101500000E46050065D0DFF81481D8F80000F7B268
:1015100000F00700B04207D288F80070D8F8000049
:1015200000F00700B04254D128683D4C810712D525
:10153000400703D5206840F4E05020602878000779
:1015400003D5206840F4604020602068A96820F03E
:10155000F000084320602878C0072DD03049686823
:101560000839012812D0022813D0032811D00968A5
:10157000890700292DDA216821F003010143216048
:10158000FFF7FEFE814641F2883A0EE009688903C2
:10159000EFE709688901ECE7FFF7F2FEA0EB09012C
:1015A000514502D90320BDE8F0872068696800F042
:1015B0000C00B0EB810FEFD1D8F80010404601F0DD
:1015C0000701B14207D90770006800F00700B04278
:1015D00001D00120E7E72878400705D52068E968B1
:1015E00020F4E050084320602878000706D52068E2
:1015F000296920F4604040EAC100206000F05EF8F4
:101600002168084AC1F30311515CC84006490860CB
:1016100006480068FFF7DCFE0020C4E7003C0240FB
:1016200008380240183F01084C0000204400002008
:101630000F2202600C4A136803F00303436013682F
:1016400003F0F0038360136803F4E053C36012688F
:101650004FF4E05303EAD20202610448006800F04C
:10166000070008607047000008380240003C024054
:1016700001480068704700004C00002004480549FC
:1016800000680968044AC1F38221515CC840704770
:101690004C00002008380240283F01080448054952
:1016A00000680968044AC1F34231515CC840704780
:1016B0004C00002008380240283F0108154810B5AA
:1016C000006810F00C02144813D04110042A0FD007
:1016D000082A0ED10F4C241F2268236802F03F0213
:1016E0005B0207D52068C0F38810A0FB010106E06B
:1016F000084610BD2168C1F38811A1FB0001002339
:10170000FEF7BEFD2168C1F30141491C4900B0FB51
:10171000F1F010BD083802400024F4002DE9F84F24
:1017200004006ED02078DFF84C93C007A9F10405BF
:101730004AD009F104000168C1F38101012908D0F0
:101740000068C0F3810002280AD1D9F800004002E5
:1017500006D52868800337D560680028E1D033E0DB
:101760006068B0F5803F10D0B0F5A02F286810D089
:1017700020F480302860286820F480202860606889
:10178000A8B1FFF7FDFD06460DE0286840F4803063
:10179000F4E740F480202860F7E700BFFFF7F0FD92
:1017A000801B642873D828688003F7D50CE0FFF706
:1017B000E7FD064605E000BFFFF7E2FD801B642859
:1017C000F0D828688003F7D42078DFF8AC8280074F
:1017D0004FF0000A3ED5A748001D016811F00C0F1C
:1017E00008D00068C0F3810002280BD1D9F80000AE
:1017F000400207D42868800716D5E068012800D188
:1018000012E033E1E068B8B10120C8F80000FFF74A
:10181000B7FD064605E000BFFFF7B2FD801B0228BA
:10182000C0D828688007F7D52868216920F0F8001B
:1018300040EAC10028600DE0C8F800A0FFF7A0FD55
:10184000064604E0FFF79CFD801B02281FD828688D
:101850008007F7D42078000722D5864F8748616932
:10186000703771B101210160FFF78AFD064604E07F
:10187000FFF786FD801B022809D838688007F7D556
:101880000EE0C0F800A0FFF77BFD064605E082E011
:10189000FFF776FD801B02287DD838688007F7D4D3
:1018A0002078400768D5DFF8CCB100270BF13C0B5E
:1018B000DBF80000C0000BD4DBF8001041F08051D1
:1018C000CBF80010DBF80000012700F080500090FA
:1018D0006B4E3068C00510D4306840F480703060C2
:1018E000FFF74EFD009005E0FFF74AFD0099401A12
:1018F000022850D83068C005F6D55E4EA0686C3618
:1019000001280FD00528306810D020F00100306089
:10191000306820F004003060A068B8B1FFF730FDF7
:1019200000900FE0306840F00100F4E740F0040060
:101930003060F7E7FFF724FD0099411A41F2883043
:10194000814266D830688007F4D50EE0FFF718FDB5
:10195000009007E0FFF714FD0099411A41F288302A
:10196000814256D830688007F4D42FB1DBF80010DC
:1019700021F08051CBF80010A069C8B33D49091D82
:101980000968C1F3810102294AD00228504607D0D4
:10199000C8F8600000E03CE0FFF7F2FC04463BE0E2
:1019A0004746C8F86000FFF7EBFC064605E000BFBD
:1019B000FFF7E6FC801B02282BD828688001F7D4AB
:1019C000D4E907010843A16A2E4A490802EB014104
:1019D000626A41EA8211084394F82C1040EA0161DE
:1019E000C9F8001001203866FFF7CAFC044606E07B
:1019F0003EE000BFFFF7C4FC001B022809D828689E
:101A00008001F7D534E000BFFFF7BAFC001B0228C5
:101A100002D90320BDE8F88F28688001F4D427E0BC
:101A20000128F7D0D9F80000E26900F48001914262
:101A30001CD1226A00F03F01914217D147F6C071D4
:101A4000626A0140B1EB821F10D1A26A4FF0FF33EE
:101A500000F4403103EB5202B1EB024F06D194F88F
:101A60002C1000F07060B0EB016F01D00120D1E7C5
:101A70000020CFE70438024000004742800E474272
:101A8000007000400000FFFF7047704710B5040071
:101A900003D094F83D0010B107E0012010BD0020F4
:101AA00084F83C00204600F01EF8022084F83D0037
:101AB000211D206800F0BAFC012084F8460084F85B
:101AC0003E0084F83F0084F8400084F8410084F828
:101AD000420084F8430084F8440084F8450084F808
:101AE0003D00002010BD704790F83D10012901D045
:101AF00001207047022180F83D100168CA6842F059
:101B00000102CA6000681149884214D0B0F1804FC8
:101B100011D00F4988420ED00E4988420BD00E4991
:101B2000884208D00D49884205D00D49884202D02C
:101B30000C49884204D1816801F00701062903D0CD
:101B4000016841F001010160002070470000014080
:101B50000004004000080040000C00400004014068
:101B60000040014000180040704770B5044600680E
:101B700001694FF00005C943890715D4C168C943FD
:101B8000890711D4E91E016101202077206880694E
:101B90008007204602D0FFF7E7FF04E000F098F846
:101BA000204600F096F8257720680169C943490767
:101BB00017D4C168C943490713D46FF00401016108
:101BC000022020772068806910F4407F204602D0F0
:101BD000FFF7CAFF04E000F07BF8204600F079F838
:101BE000257720680169C943090716D4C168C9432C
:101BF000090712D46FF008010161042020772068E2
:101C0000C0698007204602D0FFF7AEFF04E000F075
:101C10005FF8204600F05DF8257720680169C94328
:101C2000C90617D4C168C943C90613D46FF010019F
:101C30000161082020772068C06910F4407F2046A9
:101C400002D0FFF791FF04E000F042F8204600F0D8
:101C500040F8257720680169C943C90708D1C168E0
:101C6000C943C90704D1891E0161204600F032F83A
:101C700020680169C943090609D4C168C943090636
:101C800005D46FF0800101612046FFF7FDFE20685A
:101C90000169C943490609D4C168C943490605D445
:101CA0006FF040010161204600F01EF820680169D4
:101CB000C94389060BD4C168C943890607D46FF0AC
:101CC000200101612046BDE87040FFF7DEBE70BD17
:101CD0007047704700680349884201D1FFF756BB3F
:101CE00070470000000001407047704770470000D7
:101CF000F8B5016804460868CA684B6910F00F0F10
:101D00004FF0000559D003F0010602F490773743F5
:101D100065D0C10705D0D10503D5216C41F0010183
:101D20002164410705D5D90703D0216C41F0020198
:101D30002164810705D5D90703D0216C41F0040146
:101D40002164010707D502F02001314303D0216C43
:101D500041F008012164216C00293AD0800604D5A5
:101D6000900602D5204600F0FAFB20684069216CFD
:101D7000C0F38010090700D460B3204600F0C8FB10
:101D800020684069400621D52068143050E8001FC3
:101D900021F0400140E80012002AF5D1A06BA8B163
:101DA0006C490165A06BFEF7E3FC002811D0A06B25
:101DB000016D01B0BDE8F040084783060FD59306DA
:101DC0000DD52046BDE8F84000F0C9BB2046FFF71E
:101DD0008DFFF8BD2046FFF789FF2564F8BD266B0F
:101DE0002023012E79D1C60677D5D60675D5086889
:101DF000486800904869400640D5A16B0868406873
:101E00000004000CEAD0A28D8242E7D9E085C869BF
:101E1000B0F5807F2DD020680C3050E8001F21F4F1
:101E2000807140E80012002AF5D12068143050E893
:101E3000001F21F0010140E80012002AF5D12068BE
:101E4000143050E8001F21F0400140E80012002A41
:101E5000F5D184F83E30256320680C3050E8001F2F
:101E600021F0100140E80012002AF5D1A06BFEF726
:101E700036FCA08DE18D401A81B229E0A08DE18D64
:101E8000401A81B2E08D0028A8D00029A6D0206891
:101E90000C3050E8002F22F4907240E80026002E0B
:101EA000F5D12068143050E8002F22F0010240E8FC
:101EB0000026002EF5D184F83E30256320680C30D2
:101EC00050E8002F22F0100240E80023002BF5D14B
:101ED0002046FFF70AFFF8BDFFE705062BD51506DC
:101EE00029D594F83D002128F5D1A068B0F5805F90
:101EF00001D12069B0B1206A411C216221680078BB
:101F00004860E08C401E0004000CE084E3D12068AF
:101F1000C16821F08001C1602068C16841F04001C2
:101F2000C160D8E7206A0088C0F308004860206AD2
:101F3000801C2062E5E74006CDD55006CBD5CA68A7
:101F4000204622F04002CA6084F83D3000F0CFF80D
:101F5000C1E700000125000870B5040004D094F822
:101F60003D00002510B106E0012070BD84F83C5012
:101F7000204600F023F8242084F83D002068C16842
:101F800021F40051C160204600F04AFB206801693D
:101F900021F4904101612068416921F02A014161E9
:101FA0002068C16841F40051C1602564202084F894
:101FB0003D0084F83E00002070BD000010B586B0E2
:101FC000044614216846FEF7CCF918492068884277
:101FD00029D117480021026842F4002202600068FB
:101FE00000F40020059012481038026842F0040204
:101FF0000260006800F0040005904FF4406000901B
:102000000220CDE9010103200390082004906946D5
:102010000848FFF7ABF8002205213420FFF73CFA0F
:102020003420FFF72BFA06B010BD0000004C004032
:102030004038024000080240704700002DE9F84394
:10204000044690F83D001F4616460D4620284CD108
:10205000C5B1BEB194F83C00012846D0012084F8F7
:102060003C004FF00008C4F84080212084F83D0077
:10207000FFF786F9A6848146E684A068B0F5805F04
:1020800003D004E00120BDE8F883206928B12E4682
:102090005FF0000584F83C800EE00026FAE780211E
:1020A000204600F043FBA0B9AEB116F8010B216841
:1020B0004860E08C401EE084E08C4B464FF000020C
:1020C00000970028EBD14FF04001204600F02EFB96
:1020D00030B10320D7E735F8020BC0F30800E6E77C
:1020E000202084F83D000020CDE70220CBE7704798
:1020F000FEE70000F0B587B014216846FEF731F91D
:1021000032480025016841F004010160016801F0D6
:1021100004010591016841F080010160016801F04E
:1021200080010591016841F001010160016801F041
:1021300001010591016841F002010160016801F0AF
:1021400002010591016841F0400101600068204EE4
:1021500000F040000590012209213046FFF70BF9FD
:102160001C4F012204213846FFF705F909200124FC
:102170008DE831000220039069463046FEF7F6FFF5
:102180000420CDE9000469463846CDE90245FEF752
:10219000EDFF4FF4154000904FF40410CDE9010419
:1021A00069460D48FEF7E2FF002205211720FFF7E0
:1021B00073F91720FFF762F9002205212820FFF7A5
:1021C0006BF92820FFF75AF907B0F0BD303802400C
:1021D000000002400004024000180240FEB5494CD5
:1021E000C023A822237062700120A0706421E170D6
:1021F000251DFF2129706970A97000272E1DEF7021
:1022000033707270B070F070394638460FF04CF988
:102210002068E17803BA0A0603F47F4342EA032206
:1022200003BA00BA03F47F03084342EA1322A4F17D
:102230000C0142EA106008602868E97803BA0A06CF
:1022400003F47F4342EA032203BA00BA03F47F0394
:10225000084342EA1322A4F1080142EA1060086030
:102260003068F17803BA0A0603F47F4342EA032296
:1022700003BA03F47F0300BA42EA1322084342EA96
:102280001060211F231F08601F4820490097CDE9D7
:1022900001101A1F111F1E4806F0BCFB1C4806F057
:1022A000D3FD1B4C94F82D004007204602D506F0C4
:1022B000DFFE01E006F0CEFD1649154806F01EFED1
:1022C00001210022084607F0D8F80E4910390860AD
:1022D0001C31C1E900400E4824213430FEF741F89A
:1022E0000B480DA13430024601604FF4806141611A
:1022F0001021816103B00349BDE8F0400C3108486A
:1023000007F034B92C00002079160108C13C000800
:1023100020330020E53D00084C696E6B5468720064
:10232000A13D00080C4810B50A4901604FF4E131A5
:102330004160002181600C22C160C0E9041281610A
:10234000C161FFF709FE002803D0BDE81040FEF789
:10235000C4B910BD004C0040AC010020FEE7FEE710
:1023600010B54FF0E020006911F0DCFB012803D02C
:10237000BDE8104010F0F8BE10BD000030B593B0BD
:1023800030216846FDF7EDFF14210CA8FDF7E9FFA9
:102390001D480025016841F080510160006800F08F
:1023A000805011901948016841F480410160006833
:1023B000022400F48040119001200090000401905C
:1023C0008001CDE9064008AA0420A82182E8130074
:1023D0000B906846FFF7A2F908B172B6FEE70CA9A8
:1023E0000F2081E831004FF4A0500F904FF480503F
:1023F000109005210CA8FFF781F8002801D072B6D3
:10240000FEE713B030BD00004038024000700040CD
:102410000248016841F470010160704788ED00E0F6
:102420000148FFF7A2BB0000F0010020F0B50268F0
:10243000254C264D264E274F274B4FF0804CA0426F
:1024400009D0604507D0A84205D0B04203D0B842B9
:1024500001D0984204D122F0700E4A6842EA0E027E
:10246000A0421BD0604519D0A84217D0B04215D069
:10247000B84213D0984211D0184DA8420ED0184D32
:10248000A8420BD0174DA84208D0174DA84205D03E
:10249000164DA84202D0164DA84203D122F4407531
:1024A000CA682A434D6922F080022A4302608A6882
:1024B000C2620A688262A04201D0984201D10969D1
:1024C000016301214161F0BD0000014000040040B2
:1024D00000080040000C00400004014000400140A2
:1024E000004401400048014000180040001C00402A
:1024F000002000400148FFF7FBBB0000AC010020BA
:1025000010B5806B0021C185C184FFF7EFFB10BDC2
:1025100001680C3151E8002F22F4907241E8002349
:10252000002BF5D10168143151E8002F22F001028F
:1025300041E80023002BF5D1016B012909D1016885
:102540000C3151E8002F22F0100241E80023002B4B
:10255000F5D1202180F83E1000210163704708B5B5
:1025600090F83E10222901D0022008BD82684FF465
:1025700080539A4201D1016921B1816A9A421BD0EC
:102580004AB10AE00268816A5268C2F308020A800E
:10259000816A891C08E0026972B10268526802F01F
:1025A0007F020A70816A491C8162C18D491E09043B
:1025B000090CC18503D019E002685268F1E701688F
:1025C000CA6822F02002CA600168CA6822F48072D8
:1025D000CA6001684A6922F001024A61202180F83C
:1025E0003E10016B012903D0FFF726FD002008BD36
:1025F0000021016301680C3151E8002F22F0100224
:1026000041E80023002BF5D101680A68D20602D503
:102610000A6849680091818DFFF767FBE6E70000D3
:1026200070B5044600680169E26821F44051114325
:1026300001612169A068E2690843616911430843A7
:102640002168CA6849F20C639A430243CA60206851
:102650004169A26921F44071114341613149206807
:10266000884202D03049884202D1FFF717F801E0D2
:10267000FFF704F8E2690023192164253226B2F538
:10268000004F626828D0A0FB0101930F9200FDF774
:10269000F7FD0146B0FBF5F06FF01802504301EB77
:1026A000800006EB0010B0FBF5F000F0F002B1FB8B
:1026B000F5F002EB0012B1FBF5F06FF01803584390
:1026C00001EB800006EB0010B0FBF5F000F00F000E
:1026D00021681044886070BDA0FB010192185B4125
:1026E000FDF7CEFD0146B0FBF5F00201B1FBF5F0C0
:1026F0006FF01803584301EB800006EBC000B0FBFD
:10270000F5F000F0F80002EB4002B1FBF5F05843A1
:1027100001EB800006EBC000B0FBF5F000F0070015
:10272000D6E7000000100140001401402DE9F041FF
:10273000984617460E460446069D27E0681C25D09D
:102740002DB1FEF71DFEA0EB0800A8421ED920689F
:102750000C3050E8001F21F4D07140E80012002A2C
:10276000F5D12068143050E8001F21F0010140E845
:102770000012002AF5D1202084F83D0084F83E00A4
:10278000002084F83C000320BDE8F0812068006848
:1027900036EA000004D00020B842CFD00020F3E792
:1027A0000120F9E7FEE700000FB4054B10B503A9BF
:1027B000044A029800F028F810BC5DF814FB0000F1
:1027C000CD3F0008A80100200907090E002804DBFE
:1027D00000F1E02080F80014704700F00F0000F1D5
:1027E000E02080F8141D704702E008C8121F08C1DD
:1027F000002AFAD170477047002001E001C1121F82
:10280000002AFBD1704700002DE9FF4F8BB09A469C
:102810000F460546002606E025280BD052460D99A6
:1028200090476D1C761C28780028F5D10FB03046F3
:10283000BDE8F08F0024A0460122604900E0044377
:1028400015F8013F203B02FA03F00842F7D128783F
:102850002E2817D115F8010F44F004042A280ED0B1
:102860006FF02F022878A0F1300109290AD808EB6F
:10287000880102EB410100EB01086D1CF2E757F8FB
:10288000048B6D1C287869283ED006DC0028CDD04A
:1028900063280BD0642804D136E0732810D0752843
:1028A0004BD052460D999047761C85E017F8040BE3
:1028B0008DF8000000208DF80100E946012003E0BA
:1028C00057F8049B4FF0FF3061074FF0000401D42C
:1028D0000AE0641C44450DDA8442FADB19F804105E
:1028E0000029F6D106E0641C8442FCDB19F80410D0
:1028F0000029F8D1264404E019F8010B52460D993D
:102900009047641EF8D257E001CF4FF00A0B002821
:1029100002DA40422D2102E0210504D52B218DF859
:102920002410012103E0E10705D02021F7E70DF194
:10293000200908910CE00021F9E701CF4FF00A0BC4
:10294000F9E75946FDF725FD01F1300209F8012D9F
:102950000028F6D1ADEB090000F1200B600701D48F
:102960004FF00108D84502DDA8EB0B0000E0002085
:102970008046002406E009A85246005D0D99904764
:10298000641C761C08988442F5DB04E03020524633
:102990000D999047761CB8F10001A8F10108F5DC0B
:1029A00005E019F8010B52460D999047761CBBF1D2
:1029B0000001ABF1010BF4DC6D1C34E709280100C8
:1029C0002DE9F04790460E4604006FF0050555D0FE
:1029D00004F11400814608F015FE00284ED0EF1FC8
:1029E000002E3DD0B8F1000F06D032A340F22A22CB
:1029F0003DA147A0FFF7D8FE2078616A05F06AF88C
:102A000005004FF0FF383DD06E6008F02DFD2946DF
:102A1000484608F0EBFDA0B36C680021204609F0A1
:102A200009F9002120460CF05FFD002120460DF041
:102A30009BFA0022114620460BF08AFD0021204619
:102A400009F078FD0020686005F11000044608F0E8
:102A5000B1FD204608F0C7FD284605F0E9F91FE062
:102A6000384603F011FE0146484608F0BFFD28B97C
:102A7000636A1BB100221146204698472846BDE8EC
:102A8000F0870FE0384603F0FFFD0146484608F0A6
:102A9000ADFD28B9636A1BB1002211462046984754
:102AA0004046ECE7636A1BB1002211462046984776
:102AB0000020E4E72E2E2F4D6964646C6577617207
:102AC00065732F54686972645F50617274792F4C1A
:102AD0007749502F7372632F6170692F6170695F3E
:102AE0006D73672E63000000657870656374206EF7
:102AF0006577706362203D3D204E554C4C206F72CF
:102B000020657272203D3D204552525F4F4B0000C0
:102B1000417373657274696F6E202225732220667B
:102B200061696C6564206174206C696E6520256440
:102B300020696E2025730A002DE9F041884607467A
:102B40000024174D08F0DCFC05EB0411096841B1C5
:102B500008F0FEFC641C042CF4DB4FF0FF30BDE8F1
:102B6000F08105EB04152F6008F0F2FC00266E6082
:102B7000A87B002806D00BA340F20E2216A11EA0AF
:102B8000FFF712FE2E8138780121B1EB101F02D120
:102B90005FEA080000D001206881AE812046DEE7B0
:102BA000783300202E2E2F4D6964646C6577617236
:102BB00065732F54686972645F50617274792F4C29
:102BC0007749502F7372632F6170692F736F636B36
:102BD0006574732E63000000736F636B6574735BC1
:102BE000695D2E73656C6563745F77616974696E86
:102BF00067203D3D20300000417373657274696F3A
:102C00006E2022257322206661696C6564206174E0
:102C1000206C696E6520256420696E2025730A008A
:102C2000074910B58A7ACB7A00209A4207D0885C8F
:102C30000A23521CB2FBF3F403FB14228A7210BD68
:102C400084F5002030B507490A24CA7A531CB3FB27
:102C5000F4F504FB15338C7A9C4201D08854CB7276
:102C600030BD000084F5002070B505460C4688078D
:102C700006D009A34FF4B67213A11BA0FFF794FD71
:102C800008F03EFCA96809682160A9680C60BDE8ED
:102C9000704008F05DBC00002E2E2F4D6964646CFE
:102CA0006577617265732F54686972645F506172F1
:102CB00074792F4C7749502F7372632F636F72654D
:102CC0002F6D656D702E63006D656D705F6672654A
:102CD000653A206D656D2070726F7065726C792039
:102CE000616C69676E656400417373657274696FC6
:102CF0006E2022257322206661696C6564206174F0
:102D0000206C696E6520256420696E2025730A0099
:102D100070B5044608F0F4FB0546A0680468002C72
:102D20000FD021680160A00706D008A34FF48C7271
:102D300012A11BA0FFF738FD284608F009FC204629
:102D400070BD284608F004FC002070BD2E2E2F4DCB
:102D50006964646C6577617265732F546869726425
:102D60005F50617274792F4C7749502F7372632FC3
:102D7000636F72652F6D656D702E63006D656D708C
:102D80005F6D616C6C6F633A206D656D7020707261
:102D90006F7065726C7920616C69676E65640000A4
:102DA000417373657274696F6E20222573222066E9
:102DB00061696C6564206174206C696E65202564AE
:102DC00020696E2025730A002DE9F0470F460400A4
:102DD00006D13FA34FF4DC724AA14EA0FFF7E4FCFA
:102DE00008F08EFB002666602772217F41F001010A
:102DF00021776578667008F0ABFB636A7BB10022CF
:102E0000042120469847636A4BB1002211462046B0
:102E10009847636A1BB10022022120469847384632
:102E200003F032FC804604F11000814608F0EAFB12
:102E300018B14146484608F0D9FB04F11400814618
:102E400008F0E0FB18B14146484608F0CFFB012DE1
:102E50000FD0042D0DD0032D0BD0206A002834D0C4
:102E6000BDE8F0471AA340F2F71234A129A0FFF7FA
:102E70009BBC217FC1F3800001F0FB01217700287A
:102E800023D1206A30B912A34FF4F37232A121A0EA
:102E9000FFF78AFC206A042D08D00771206A0568B4
:102EA0000C35284608F0E6FB10B108E00671F5E79E
:102EB00007A340F2EF122FA116A0FFF775FC2846DA
:102EC0002662BDE8F04708F0D2BBBDE8F0870000FD
:102ED0002E2E2F4D6964646C6577617265732F5473
:102EE000686972645F50617274792F4C7749502F12
:102EF0007372632F6170692F6170695F6D73672EE4
:102F000063000000636F6E6E20213D204E554C4CD7
:102F100000000000417373657274696F6E20222592
:102F20007322206661696C6564206174206C696E2F
:102F30006520256420696E2025730A00636F6E6E1C
:102F40002D3E63757272656E745F6D7367203D3DD3
:102F5000204E554C4C000000636F6E6E2D3E637525
:102F60007272656E745F6D736720213D204E554C03
:102F70004C000000696E61766C6964206F705F635D
:102F80006F6D706C657465645F73656D0000000043
:102F9000002802DC4142112901DB0520704702496B
:102FA000A1EB800000687047403F010870B5094DF3
:102FB0000646002404EB440005EBC000017D29B166
:102FC0008068B04202D1204600F036F9641C0A2C19
:102FD000F0DB70BDC06A00202DE9F74F84B04FF0E0
:102FE0000A0B00240646DA465F46D946029401944D
:102FF000CDF80040514904EB440001EBC0080390B8
:1030000098F814500A2F1DD0002D2AD0012D08D079
:10301000022D06D24AA340F2231257A166A0FFF761
:10302000C3FB9EB13168D8F8040081420ED10698E6
:1030300020B1D8F808100698814207D1204607B081
:10304000BDE8F08F002DE1D127460AE0012D16D012
:10305000022D06D3B8F812000099884201D3A24687
:103060000090641C24B20A2CC4DB059881074FF041
:10307000FF30E4D40A2F16D018DA3C463EE02F4940
:10308000039851F830000028B8F8120005D00299D2
:103090008842E6D3A1460290E3E701998842E0D353
:1030A000A3460190DDE70599C907C8D05146BAF19A
:1030B0000A0F0EDA0C46214801EB440150F83100AA
:1030C00080B11FA340F26D1245A13BA0FFF76CFB3E
:1030D00008E05946BBF10A0F03DB4946B9F10A0F74
:1030E000ADDA0C460A2C06DB15A340F27F1242A192
:1030F00031A0FFF759FB204600F09EF80A2C06DBB2
:103100000FA340F283123CA12BA0FFF74DFB0B480D
:1031100004EB440100EBC105287D30B108A34FF456
:10312000C2723AA124A0FFF73FFB0EB1306868607D
:10313000002068820698A86080E70000C06A00202E
:103140002E2E2F4D6964646C6577617265732F5400
:10315000686972645F50617274792F4C7749502F9F
:103160007372632F636F72652F697076342F657485
:10317000686172702E6300007374617465203D3D58
:10318000204554484152505F53544154455F504587
:103190004E44494E47207C7C207374617465203E08
:1031A0003D204554484152505F53544154455F536C
:1031B0005441424C45000000417373657274696F5D
:1031C0006E2022257322206661696C65642061741B
:1031D000206C696E6520256420696E2025730A00C5
:1031E0006172705F7461626C655B695D2E71203D18
:1031F0003D204E554C4C000069203C204152505F10
:103200005441424C455F53495A4500006172705F1A
:103210007461626C655B695D2E7374617465203DD9
:103220003D204554484152505F53544154455F45F9
:103230004D5054590000000070B5074C00EB40059C
:10324000002654F8350018B106F04EFE44F83560FB
:1032500004EBC500067570BDC06A00202DE9F0437F
:1032600085B00D00074609D07C684FF4807820882F
:10327000404539D12079062836D109E01CA340F217
:103280008A2229A12CA0FFF78FFA05B0BDE8F083B0
:103290006079042828D16088082825D1D4F80E0048
:1032A0000490A169686820B1814202D101263346A9
:1032B00001E00026022304F10802914604A92846F1
:1032C00000F0A2FBE08840450ED16EB1022204ABB3
:1032D000CDE90232291DCDE9001905F12603194671
:1032E0004A46284600F090FA384606F0FDFDCCE745
:1032F0002E2E2F4D6964646C6577617265732F544F
:10330000686972645F50617274792F4C7749502FED
:103310007372632F636F72652F697076342F6574D3
:10332000686172702E6300006E6574696620213DCD
:10333000204E554C4C000000417373657274696FE8
:103340006E2022257322206661696C656420617499
:10335000206C696E6520256420696E2025730A0043
:10336000FEB515460E46040006D143A340F21E32B8
:103370004FA153A0FFF718FA36B93FA340F21F320E
:1033800059A14FA0FFF710FA35B93BA34FF448728B
:1033900058A14BA0FFF708FA2146286800F0D0FF9B
:1033A00008B1584B3FE02868C0F303110E2925D01F
:1033B000A168636800EA01020B409A4208D080B21B
:1033C000A0F57E41A93903D0E068B0B304F10C0543
:1033D0004D4B4E481A7802EB420100EBC1010F7DC4
:1033E000022F2ED38F68A7422BD12F6849688F42B6
:1033F00027D13146204600F08BF8FEBD01208DF824
:10340000040000208DF805005E208DF80600687825
:1034100001AB00F07F008DF80700A8788DF8080058
:10342000E8788DF809004FF40060009004F126025E
:103430003146204600F0C8FBFEBDFFE76FF00300F9
:10344000FAE7002202EB420100EBC1010F7D022FDF
:1034500008D38F68A74205D12F6849688F4201D1F0
:103460001A70C6E7521CD2B20A2AEBD3324629465A
:10347000204600F0D5F8DFE72E2E2F4D6964646CEE
:103480006577617265732F54686972645F50617209
:1034900074792F4C7749502F7372632F636F726565
:1034A0002F697076342F6574686172702E63000026
:1034B0006E6574696620213D204E554C4C0000001D
:1034C000417373657274696F6E20222573222066C2
:1034D00061696C6564206174206C696E6520256487
:1034E00020696E2025730A007120213D204E554C25
:1034F0004C00000069706164647220213D204E55CB
:103500004C4C0000303F010810010020C06A002030
:103510002DE9F8430646154688461C4802EB45014E
:1035200000EBC104207D022806D219A340F2EE224E
:1035300025A131A0FFF738F9144A05EB4501207D9C
:1035400002EBC1050C35022813D1608A0327B0F5C0
:103550008E7F04D9211D304600F010FA07E0B0F547
:10356000877F06D32A46211D304600F00DFA00B9A8
:1035700027754FF4006000902B4606F12602414665
:10358000304600F021FBBDE8F8830000C06A00204F
:103590002E2E2F4D6964646C6577617265732F54AC
:1035A000686972645F50617274792F4C7749502F4B
:1035B0007372632F636F72652F697076342F657431
:1035C000686172702E6300006172705F7461626C7A
:1035D000655B6172705F6964785D2E737461746598
:1035E000203E3D204554484152505F53544154457C
:1035F0005F535441424C4500417373657274696F67
:103600006E2022257322206661696C6564206174D6
:10361000206C696E6520256420696E2025730A0080
:103620002DE9FC5F8246263001900E46086814465C
:103630004FF0FF374FF0000B514600F081FE80B98C
:103640003068C0F303110E290BD056B148B1524671
:1036500001213046FFF7C0FC050005D540B2BDE8AA
:10366000FC9F6FF00F00FAE77F2D06D337A340F2DF
:10367000C13244A147A0FFF797F805F0FF094F4971
:1036800009EB490801EBC805287D00280ED0012868
:1036900008D0022806D22DA340F2CD3248A13DA089
:1036A000FFF782F8BBF1000F06D104E00120287576
:1036B000C5F808A000E034B93146504600F05EF984
:1036C0000746002CCBD0287D3C4E02280ED346491D
:1036D0004FF4006005F10C0381F800900090214642
:1036E0005046019A00F070FA07462DE001282BD1D0
:1036F000254640F2F13768892989884207D1286830
:1037000028B112A33A4639A122A0FFF74DF8287B31
:10371000400607D522464FF420710E2006F01AFA13
:10372000044605E02D68002DE5D1204606F074FD25
:1037300044B156F8380008B106F0D6FB46F83840D8
:10374000002701E04FF0FF37384688E72E2E2F4D37
:103750006964646C6577617265732F54686972641B
:103760005F50617274792F4C7749502F7372632FB9
:10377000636F72652F697076342F6574686172703B
:103780002E63000074797065206F766572666C6FC9
:1037900077000000417373657274696F6E20222593
:1037A0007322206661696C6564206174206C696EA7
:1037B0006520256420696E2025730A00C06A0020F8
:1037C0006172705F7461626C655B695D2E737461B8
:1037D0007465203D3D2050454E44494E47206F7250
:1037E00020535441424C4500100100206E6F207060
:1037F00061636B65742071756575657320616C6CB0
:103800006F776564210000002DE9FF4F81B0984675
:10381000DDE90FA9DDF838B006004FF0000706D14A
:103820002CA340F2574239A13CA0FEF7BDFF4FF454
:1038300020721C210E2005F041FF050046D068894A
:103840001C2806D223A340F262423EA133A0FEF719
:10385000ABFF6C68119802F075F8E08096F82C00C8
:10386000062806D01BA340F2694243492BA0FEF76D
:103870009BFFD8F80010A160B8F80400A081DAF826
:103880000010C4F81210BAF80400E082DBF800005F
:10389000C4F80E00D9F80000A0614FF480702080B9
:1038A00008206080062020710420607140F6060028
:1038B000DDE9022300902946304600F085F92846CC
:1038C00006F012FB384605B0BDE8F08F4FF0FF3030
:1038D000F9E700002E2E2F4D6964646C65776172E4
:1038E00065732F54686972645F50617274792F4CEC
:1038F0007749502F7372632F636F72652F697076EB
:10390000342F6574686172702E6300006E6574698F
:103910006620213D204E554C4C00000041737365DC
:103920007274696F6E2022257322206661696C654E
:1039300064206174206C696E6520256420696E20A6
:1039400025730A00636865636B2074686174206680
:103950006972737420706275662063616E20686F8F
:103960006C6420737472756374206574686172701E
:103970005F686472000000007C420108014A00F0A8
:1039800003B80000303F01087FB5064D031D012438
:10399000CDE90035CDE9021422331946FFF734FF93
:1039A00004B070BD363F010870B5164D002400BF4D
:1039B00004EB440005EBC002117DF1B1508A401CBC
:1039C00080B25082B0F5967F0AD2012906D0032931
:1039D0000AD004290AD001290BD00EE0052808D30B
:1039E0002046FFF729FC08E0042000E002201075C3
:1039F00003E0111D9068FFF7C1FF641C0A2CD7DBA0
:103A000070BD0000C06A0020F8B5044690F82C0094
:103A10001F4616460D46062806D020A340F2A912DE
:103A20002CA135A0FEF7C0FE9DB1286888B12146C3
:103A300000F086FC68B92878C0F303100E2808D07F
:103A4000224639462846FFF7C7FA002804DA40B272
:103A5000F8BD6FF00F00F8BD00EB400130480223C5
:103A600000EBC102137594603368D360B38813828E
:103A70000023538250F8315075B140F831304FF483
:103A800000600090334604F126022946204600F0EB
:103A90009BF8284606F028FA0020F8BD2E2E2F4D60
:103AA0006964646C6577617265732F5468697264C8
:103AB0005F50617274792F4C7749502F7372632F66
:103AC000636F72652F697076342F657468617270E8
:103AD0002E6300006E657469662D3E6877616464CC
:103AE000725F6C656E203D3D204554485F485741EC
:103AF0004444525F4C454E00417373657274696F64
:103B00006E2022257322206661696C6564206174D1
:103B1000206C696E6520256420696E2025730A007B
:103B2000C06A00202DE9F041044640890E270D4669
:103B30000E283CD9E07B18B995F83000401CE073A2
:103B4000606801788689CA0714D0012905D0062249
:103B50001C49FCF711FC48B10CE0417851B9807860
:103B60005E2807D1607B40F0100002E0607B40F0EF
:103B700008006073082E03D0B6F5C16F17D10DE0B1
:103B800095F82D00000712D53946204606F092FB25
:103B900068B92946204600F01BFD10E095F82D007D
:103BA000000704D53946204606F084FB18B12046AC
:103BB00006F09AF903E029462046FFF74FFB002064
:103BC000BDE8F081303F01082DE9F04104461F4671
:103BD00090460E46069801F0B5FE05460E21304689
:103BE00005F009FD18B16FF00100BDE8F0817068C3
:103BF000858139680160B9888180D8F80020C0F8D3
:103C00000620B8F80410418194F82C00062806D04C
:103C100006A34FF4997213A11FA0FEF7C5FD31460C
:103C20002046A269BDE8F041104700002E2E2F4D1E
:103C30006964646C6577617265732F546869726436
:103C40005F50617274792F4C7749502F7372632FD4
:103C50006E657469662F65746865726E65742E632F
:103C6000000000006E657469662D3E6877616464CB
:103C7000725F6C656E206D757374206265203620EE
:103C8000666F722065746865726E65745F6F7574B7
:103C90007075742100000000417373657274696F60
:103CA0006E2022257322206661696C656420617430
:103CB000206C696E6520256420696E2025730A00DA
:103CC00010B5040006D10BA34FF40D7210A114A07F
:103CD000FEF76AFD732084F82E00742084F82F000C
:103CE000194860611948A061204601F0FFFA0020E0
:103CF00010BD00002E2E2F4C5749502F5461726773
:103D000065742F65746865726E657469662E6300EC
:103D10006E6574696620213D204E554C4C000000B4
:103D2000417373657274696F6E2022257322206659
:103D300061696C6564206174206C696E652025641E
:103D400020696E2025730A0061330008E9540008D9
:103D5000104E04464FF0FF373946306805F04AFBF5
:103D60000028F9D10C4807F052FC204601F05CFB1A
:103D700005000AD022692146904710B1284606F076
:103D8000B3F8054807F054FCECE7034807F050FC93
:103D9000E2E70000180000206000002070470000EB
:103DA00008B50446002000906A4601210C48FDF742
:103DB0000FF8009800F004000090216891F82D2081
:103DC000520704D438B1084605F0F2F803E010B900
:103DD000084605F097F8C82005F09AF9E4E70000D6
:103DE000D83200202DE9FC410025064601950095BA
:103DF00090F82D00400742D5254C606868B34FF419
:103E0000805200212046FDF735F9FDF7B9FA4FF44D
:103E10007A7701906A4601211D48FCF7D9FFFDF72A
:103E2000AFFA0199401AB84217D800988006F1D528
:103E30006A4610211648FCF7CBFF0098410703D5CE
:103E40004FF40061E16000E0E560800701D5A56006
:103E50000DE04FF48040A06009E0E068A168C00870
:103E600040EA510082B200210948FDF703F9002120
:103E70000748FCF7A1FC0648FCF7F2FF02E0044803
:103E8000FDF730F83046FFF789FFBDE8FC81000000
:103E9000D83200202DE9F0410E4604005ED0A5691D
:103EA000002D0DDA07F02CFBA569002D06DA0EB9FE
:103EB0006D1EA561BDE8F04107F04ABB07F048FB65
:103EC000284600F0ADF8040048D0012707F018FBA1
:103ED00080460120052E19D2DFE806F0030A0E13F2
:103EE00016002089401C00B22081012834DC14E037
:103EF0002089401E20812FE0618901B10027608167
:103F00000BE00020608127E0A08106E014A34FF4BD
:103F10001F6220A123A0FEF747FCA07BE0B1DFB128
:103F2000B4F90800002801DD012700E000276089BE
:103F300008B1012600E00026A08908B1012400E0B4
:103F40000024404607F004FB234632463946284603
:103F5000BDE8F04107F0B8B94046ABE7BDE8F081F5
:103F60002E2E2F4D6964646C6577617265732F54D2
:103F7000686972645F50617274792F4C7749502F71
:103F80007372632F6170692F736F636B6574732E27
:103F900063000000756E6B6E6F776E206576656EE0
:103FA00074000000417373657274696F6E2022257E
:103FB0007322206661696C6564206174206C696E8F
:103FC0006520256420696E2025730A0013B54FF61D
:103FD000FF73012269460248FEF730F800981CBDC5
:103FE000AC0100202DE9F0410E46044607F088FAA6
:103FF0000021676861602568216007F0A9FA380030
:1040000005D016B105F070FF01E003F003FC002DB0
:1040100004D02846BDE8F04103F09EBEBDE8F08123
:1040200010B50DF0A3FC002803D102490920086057
:10403000002010BD1C0100200A46032100F0F4B846
:104040002DE9FE4F8A4644490446D1F8088098F885
:1040500000000007850E142D79D36089042876D3DB
:1040600060680078002872D0082870D1486901F192
:104070001407C0F303120E2A69D08946096800F0BC
:104080005FF9002863D12089082860D305F10E016B
:104090000E46204605F0AFFA002830D0208941199D
:1040A00089B2884253D84FF420720E2005F006FBE7
:1040B00006004CD0718905F10800814216D32A46CA
:1040C00041467068FCF726F92946304606F0F2F8BA
:1040D000002806D021A3B6222EA13CA0FEF764FB47
:1040E00004E02146304605F083FD18B1304605F066
:1040F000FBFE2CE0204605F0F7FE34460CE031468E
:10410000204606F0D7F8002806D014A3C72239A10C
:104110002EA0FEF749FB1AE029462046666805F006
:104120006AFAA0B960683968FF22C160D9F8101036
:1041300001610021317071800272418101228DE89C
:1041400006040A46FF233946204600F011FB2046AC
:10415000BDE8FE4F05F0C8BEB83300202E2E2F4D0F
:104160006964646C6577617265732F546869726401
:104170005F50617274792F4C7749502F7372632F9F
:10418000636F72652F697076342F69636D702E636B
:104190000000000069636D705F696E7075743A208D
:1041A0006D6F76696E6720722D3E7061796C6F61FC
:1041B0006420746F2069636D702068656164657246
:1041C000206661696C65640A0000000041737365D4
:1041D0007274696F6E2022257322206661696C6596
:1041E00064206174206C696E6520256420696E20EE
:1041F00025730A0069636D705F696E7075743A208B
:10420000726573746F72696E67206F726967696E29
:10421000616C20702D3E7061796C6F616420666105
:10422000696C65640A0000002DE9FF4791468846E5
:1042300006464FF420722421222005F03FFA0500A3
:1042400031D06889242806D218A34FF4B47225A16E
:104250002FA0FEF7A9FA6C6877681C2284F800800A
:1042600084F801904FF00008A4F80480A4F80680B8
:10427000686871680830FCF74DF8F868039003A887
:1042800000F086FC60B1A4F802800122CDF8008025
:10429000CDE90120FF2303AA0021284600F068FA97
:1042A000284605F021FEBDE8FF8700002E2E2F4D89
:1042B0006964646C6577617265732F5468697264B0
:1042C0005F50617274792F4C7749502F7372632F4E
:1042D000636F72652F697076342F69636D702E631A
:1042E00000000000636865636B2074686174206679
:1042F0006972737420706275662063616E20686FE6
:104300006C642069636D70206D657373616765000F
:10431000417373657274696F6E2022257322206663
:1043200061696C6564206174206C696E6520256428
:1043300020696E2025730A000A460B21FFF774BF1F
:10434000421C12D088B191F82D2092070BD54B68F2
:10435000834208D0896800EA01020B409A4202D1E8
:104360000143491C01D00020704701207047000024
:104370002DE9F74F88B00446099800251426808C53
:10438000AF1F1438C11700EB5170C0F3CF0003907A
:1043900060680690017801F00F01052903D03846C6
:1043A0000BB0BDE8F08F6189142907D25BA34FF4ED
:1043B0003F7269A16FA0FEF7F7F9F0E7C08801F03E
:1043C000C1FAC0F30C0100F400500291079020895B
:1043D00014381FFA80F88EE003984FF6FF7101EA57
:1043E000C0004146404500D9084604904FF4207271
:1043F00014210E2005F062F95FEA000A7ED0BAF8B7
:104400000A00142806D245A34FF4497263A159A0AB
:10441000FEF7CAF91422DAF804000699FBF77AFFCE
:10442000DAF804000590049F35E06089811B8DB2A5
:10443000B04206D239A340F22D3260A14DA0FEF762
:10444000B3F9AF4200D23D461DB3052003F090F909
:104450005FEA000957D060684B463044CDE900055B
:1044600041222946002005F0AFFA5FEA000B50D048
:10447000204605F0D1FE5549C9E904145946504675
:1044800005F0BEFA781B07043F0C06D0002624680E
:10449000CBE724680026002FC7D1701986B209988F
:1044A000808C143840450298C0F30C0001DB07995A
:1044B00009B140F4005001F045FA0599C88004980C
:1044C000143080B201F03EFA059948800598002129
:1044D0004181099851460A9A43699847504605F028
:1044E00003FD0499A8EB01001FFA80F8DDE9020141
:1044F000084480B20290B8F1000F00E006E07FF4BB
:104500006BAF00204CE7504605F0EEFC4FF0FF305B
:1045100046E7484600F0AEFBF5E700002E2E2F4D93
:104520006964646C6577617265732F54686972643D
:104530005F50617274792F4C7749502F7372632FDB
:10454000636F72652F697076342F6970345F66729D
:1045500061672E63000000006970345F66726167F6
:1045600028293A207062756620746F6F2073686F17
:1045700072740000417373657274696F6E20222536
:104580007322206661696C6564206174206C696EB9
:104590006520256420696E2025730A00746869739C
:1045A000206E656564732061207062756620696E97
:1045B000206F6E652070696563652100702D3E6C0B
:1045C000656E203E3D20706F666600004D5200080B
:1045D0002DE9F047456807460E4628780421B1EBDF
:1045E000101F03D0384605F07FFC77E000074FEA44
:1045F0009068688801F0A6F904463889A04203D97A
:104600002146384605F06EFD79894145EAD338895F
:10461000A042E7D3B8F1140FE4D32969DFF81C9165
:10462000C1F303100E28C9F81410EA68C9F8102065
:1046300005D0304600F086F850B1344619E096F8BF
:104640002D00C00702D070680028F6D1002410E0C9
:1046500099F8140000247F280BD03948046806E03C
:10466000B44203D0204600F06DF810B92468002C45
:10467000F6D13146D9F81000FFF762FE0028B1D11B
:1046800099F81000C0F303100E28ABD0002CA9D06D
:10469000E88830F0C00005D0384600F035F9070052
:1046A0001CD07D68C9F80850C9E900462978384609
:1046B0000907890EA9F80C10414605F0FBFD687A40
:1046C000012818D0062811D011280AD04D462146BD
:1046D000D9F81400FFF734FE90B11EE00020BDE8C9
:1046E000F087314638460DF0FBF919E0314638467F
:1046F00008F0B8F814E031463846FFF7A1FC0FE0A7
:10470000287DC0F303100E2807D04146384605F037
:10471000D1FC02213846FFF78FFC384605F0E4FB58
:104720000021C9F80010C9F80410C9F80810A9F848
:104730000C10C9F81010C9F81410CFE7B8330020D6
:10474000AC00002010B590F82D10C9070CD04168BE
:1047500051B1064A52698A4204D001461046FFF719
:10476000EFFD08B1012010BD002010BDB8330020BE
:10477000FEB5DDE90954089E1AB109B10F6807B901
:10478000211D0096CDE9015400F002F8FEBD0000A5
:104790002DE9F84F0546DDE90BA8807BDDF828B050
:1047A0001F4616468946012806D02FA34FF455729E
:1047B0003AA13DA0FDF7F8FF6FF00104002E35D0BF
:1047C0001421284604F017FF002832D168896C684C
:1047D000142806D224A34FF462723DA132A0FDF743
:1047E000E3FF277284F809A030682061452020701B
:1047F00084F801B0288901F0A5F8414F60804FF09E
:10480000000AA4F806A0388801F09CF8A080388837
:10481000401C3880B9F1000F05D0D9F80000E060E5
:10482000A4F80AA00CE037480068F8E76889142863
:1048300002D22046BDE8F88F68686E460069009095
:10484000B8F8240040B12989814205D93246414651
:104850002846FFF78DFDEDE7D8F814304046324684
:1048600029469847E6E700002E2E2F4D6964646CB8
:104870006577617265732F54686972645F50617205
:1048800074792F4C7749502F7372632F636F726561
:104890002F697076342F6970342E6300702D3E724C
:1048A0006566203D3D203100417373657274696F08
:1048B0006E2022257322206661696C656420617414
:1048C000206C696E6520256420696E2025730A00BE
:1048D000636865636B2074686174206669727374C1
:1048E00020706275662063616E20686F6C6420734F
:1048F00074727563742069705F68647200000000F0
:1049000012010020C04001082DE9F05F4568834690
:10491000287800F00F0005287DD1E88801F012F812
:10492000C004070C688801F00DF829780907890E82
:10493000814270D8401A1FFA80F8584605F001F9F4
:104940006A4C0646208830440A2809D93146284650
:1049500000F026FC00285ED0208830440A28E8D8E1
:10496000A14664684FF0000A0CE06069E96888427B
:1049700007D1A0692969884203D1A089A988884202
:1049800003D02468002CF0D106E02CB1E88800F0B8
:10499000D9FFC0041BD025E0042002F0E9FE04008A
:1049A0000AD13146284600F0FBFBB04233DB04203D
:1049B00002F0DEFE0400CED02021FBF7D2FC0F2057
:1049C000E077D9F804102160C9F8044004E0E089D8
:1049D00000F0B8FFC00405D01422294604F10800F5
:1049E000FBF798FCA87940F340156D1C08D007EB45
:1049F000080080B2B84263D34FF6EB7188425FD8AB
:104A00002A465946204600F07DF9411C58D0B9F895
:104A10000020324400E064E0A9F8002035B107EB43
:104A20000801A183A17F41F00101A177012845D1AF
:104A3000A08B1422143087B2606804F10801456825
:104A400028462E68FBF766FC384600F07BFF68803E
:104A5000A5F806A0A5F80AA0656809E0142130466B
:104A6000776805F027FC3146284604F0C9FF3E6808
:104A7000002EF3D1D9F804104E468C4205D1002106
:104A800005E00868A04202D001460029F9D120467D
:104A900000F05CFA284605F054F804463088A0423D
:104AA00006D213A340F29B2220A127A0FDF77CFE93
:104AB0003088001B30802846BDE8F09F0020FBE7CF
:104AC000606870B9D9F80400844206D008A340F2A7
:104AD000AB2227A11CA0FDF767FE0021204600F0B5
:104AE00035FA584605F000FAE8E700001401002006
:104AF0002E2E2F4D6964646C6577617265732F5437
:104B0000686972645F50617274792F4C7749502FD5
:104B10007372632F636F72652F697076342F6970BB
:104B2000345F667261672E630000000069705F7217
:104B3000656173735F70627566636F756E74203E36
:104B40003D20636C656E0000417373657274696F1C
:104B50006E2022257322206661696C656420617471
:104B6000206C696E6520256420696E2025730A001B
:104B70006E6F74206669727374616C74686F7567A8
:104B800068206A75737420656E717565756564005B
:104B900070B50146144813E090F82D20D3070FD0CC
:104BA00053070DD543685BB184680D68234005EA5F
:104BB00004069E4216D0920702D4C268954211D0D4
:104BC00000680028E8D10948006850B190F82D200D
:104BD000D30706D0520704D5426812B109787F295D
:104BE00000D1002070BD0000AC000020B00000200B
:104BF0001022014900F002B8B06B00202DE9FC43FF
:104C00000023006889466C461E464FF00A0C01AD31
:104C10000090002094F80080B8FBFCF70CFB17878D
:104C2000B8FBFCF884F8008030372F54401CC0B229
:104C3000B8F1000FEED106E01F465B1C974209DA7F
:104C40002F5C01F8017B401EC0B2F5D218465B1CF8
:104C5000904202DB0020BDE8FC832E20761CF6B2D9
:104C6000641C01F8010B042ED3D3002001F8010CC1
:104C70004846F0E710B5040006D106A34FF43172A0
:104C800013A116A0FDF790FD2146BDE810400520B8
:104C900002F0FABC2E2E2F4D6964646C6577617248
:104CA00065732F54686972645F50617274792F4C18
:104CB0007749502F7372632F636F72652F69707617
:104CC000342F6970345F667261672E6300000000E4
:104CD0007020213D204E554C4C00000041737365FF
:104CE0007274696F6E2022257322206661696C657B
:104CF00064206174206C696E6520256420696E20D3
:104D000025730A002DE9F05F4C68064693460F466E
:104D100000254FF00108608800F014FE21784FF064
:104D2000FF3A0907890E814231D8A0EB0109E088DA
:104D300000F008FEC0047C68010C0020206001EB3C
:104D4000090083B2A180E3808B4220D3726829E0FE
:104D50005068B0F804C0614515D222606DB1B5F855
:104D600006C0614513D38088834210D82F60A08885
:104D7000844506D04FF0000803E08088834206D8BF
:104D800077608AB12EE002D0C288914202D25046AA
:104D9000BDE8F09F25B1EA88624501D04FF00008D8
:104DA00002680546002AD3D195B1E888A1888842D7
:104DB00006D92AA34FF4DB7237A13FA0FDF7F4FC1C
:104DC0002F60E888A18888420CD04FF0000809E0E5
:104DD000706830B121A34FF4DF7241A136A0FDF716
:104DE000E3FC7760BBF1000F02D1B07FC007CFD0EA
:104DF000B8F1000F30D07268002A2DD0506880883A
:104E0000002829D12168204629B14C68C088A18892
:104E10008842F7D020E0B8F1000F1DD032B90FA3BF
:104E200040F2DF123CA124A0FDF7BEFC7068406890
:104E3000A04206D109A34FF4F07237A11EA0FDF7DE
:104E4000B3FC206830B105A34FF4F17236A11AA06B
:104E5000FDF7AAFC01209BE7002099E72E2E2F4D9D
:104E60006964646C6577617265732F5468697264F4
:104E70005F50617274792F4C7749502F7372632F92
:104E8000636F72652F697076342F6970345F667254
:104E900061672E6300000000636865636B206672C3
:104EA00061676D656E747320646F6E2774206F7612
:104EB00065726C6170000000417373657274696F94
:104EC0006E2022257322206661696C6564206174FE
:104ED000206C696E6520256420696E2025730A00A8
:104EE0006E6F2070726576696F7573206672616788
:104EF0006D656E742C2074686973206D75737420F1
:104F000062652074686520666972737420667261D8
:104F1000676D656E7421000073616E69747920633A
:104F20006865636B0000000076616C69646174659C
:104F30005F646174616772616D3A6E6578745F7009
:104F4000627566213D4E554C4C00000070B504461C
:104F50000C480D464168A14202D1216841600AE037
:104F6000002D06D108A340F2451216A11CA0FDF7A2
:104F70001BFC206828602146BDE87040042002F038
:104F800083BB0000140100202E2E2F4D6964646C39
:104F90006577617265732F54686972645F506172DE
:104FA00074792F4C7749502F7372632F636F72653A
:104FB0002F697076342F6970345F667261672E6373
:104FC0000000000073616E69747920636865636B2B
:104FD000206C696E6B6564206C697374000000005E
:104FE000417373657274696F6E2022257322206687
:104FF00061696C6564206174206C696E652025644C
:1050000020696E2025730A002DE9F047054600242B
:105010000F46A94205D12FA3AB223DA13FA0FDF72A
:10502000C3FB002F08D03868A84205D029A3AD22C1
:1050300044A13AA0FDF7B8FB6E684FF48038706861
:10504000818800291AD100686860142205F10801DE
:105050007068FBF75FF901213046FFF76DF93046C4
:1050600004F06FFD0446404505D31AA3BC223AA1C3
:105070002AA0FDF799FB304604F036FF6E6812E077
:105080007068B1460668484604F05BFD0444444538
:1050900005D310A3CC2230A120A0FDF785FBA4B23C
:1050A000484604F021FF002EEAD139462846FFF792
:1050B0004DFF314D2888A04205D206A3D2222FA150
:1050C00016A0FDF771FB2888001B28802046BDE84C
:1050D000F08700002E2E2F4D6964646C6577617235
:1050E00065732F54686972645F50617274792F4CD4
:1050F0007749502F7372632F636F72652F697076D3
:10510000342F6970345F667261672E63000000009F
:105110007072657620213D2069707200417373655D
:105120007274696F6E2022257322206661696C6536
:1051300064206174206C696E6520256420696E208E
:1051400025730A00707265762D3E6E657874203D79
:105150003D2069707200000070627566735F667250
:10516000656564202B20636C656E203C3D203078A3
:1051700066666666000000001401002069705F72B8
:10518000656173735F70627566636F756E74203EE0
:105190003D2070627566735F66726565640000002D
:1051A0002DE9F0471D4F894606460024002213468C
:1051B00011461546786822E0D0F814C0D6F80C8065
:1051C000C4450BD1D0F818C0D6F81080C44505D11D
:1051D000B0F80CC0B6F80480C44509D06D1C2AB1E3
:1051E00090F81FC092F81F80C44501D802461946A6
:1051F000D0F800C0BCF1000F00D003466046002884
:10520000DAD11AB11046FFF7FFFE04444C4501DA2B
:10521000012DCBDC2046BDE8F08700001401002002
:1052200070B50948002544680BE0E07F20B1401EBE
:10523000E0772546246804E0204624682946FFF7E5
:10524000E3FE002CF1D170BD1401002010B5040064
:1052500006D108A340F2CE2215A118A0FDF7A4FAAA
:10526000606908B104F040FE2046BDE81040FFF739
:1052700001BD00002E2E2F4D6964646C657761724C
:1052800065732F54686972645F50617274792F4C32
:105290007749502F7372632F636F72652F69707631
:1052A000342F6970345F667261672E6300000000FE
:1052B00070637220213D204E554C4C004173736544
:1052C0007274696F6E2022257322206661696C6595
:1052D00064206174206C696E6520256420696E20ED
:1052E00025730A0000218172C172704730B58DB0FC
:1052F0000446464D002044490090296001218A035C
:10530000C5E90112CA02EA6028828DF828008022CD
:105310008DF82920E1228DF82A208DF82C008DF8B7
:105320002B008DF82D000AAA6A61C5E90610C80590
:1053300028622846FBF7D0FB28B994F82D0040F0EE
:10534000040084F82D000423314A32492F48FBF72A
:1053500005FB304A04238032A2F580712B48FBF70D
:10536000C3FA062084F82C00686901210022007825
:1053700084F826006869407884F827006869807896
:1053800084F828006869C07884F829006869007981
:1053900084F82A006869407984F82B0040F2DC50D8
:1053A000A08494F82D0040F00A0084F82D000846EF
:1053B00004F063F818490860242101A8FAF7D1FF26
:1053C00016A001904FF4AF7006903020079001AA0C
:1053D0002146144804F0CAF80C48FBF741FD6A4620
:1053E0001D210A48FBF7F4FC00981D2140F00B0238
:1053F00006480092FBF73EFE6A461D210348FBF774
:10540000E7FC0DB030BD000000800240D832002023
:10541000081B0020B80200201800002045746849CD
:1054200066000000513D00082DE9F84F00200446B9
:1054300000902C48FBF7CFFA10B10020BDE8F88FA0
:105440002848818FD0F840900904090C2FD04FF4E0
:10545000C172002004F032F9009040B32148009D51
:1054600040F2F45BD0F830806E89002710E000BF76
:10547000A4F2F4525242FAF74DFFD8F80C008046DD
:10548000D0F808903F1BAAF2F456002407F2F45714
:10549000686806EB040ADA4509EB04013844E7D8EA
:1054A0003246FAF737FF2D683444002DDCD10D4821
:1054B0000022016B05E00B6843F000430B60C968F4
:1054C000521C836B9342F6D800218163006800F57B
:1054D00080504269120602D58022426181600098A4
:1054E000ACE70000D83200202DE9F05F27480D46D8
:1054F000C66A002083460446D6F808A031E030682A
:1055000000280CDB6F894FF0000818E0A4F2F45279
:105510005242FAF7FFFEF6683068002802DA6FF0B0
:10552000070025E0D6F808A0A8EB040000F2F45824
:10553000ABEB0400A9F2F45700F2F45B002407EB94
:10554000040940F2F451894569680AEB04004144BA
:10555000DCD83A46FAF7DEFE0BEB07002D683C4438
:105560008346002DCBD101460848FBF7FDFC002007
:105570000649096801F580514A69920603D520223F
:105580004A6100224A60BDE8F09F0000D832002046
:105590002DE9F04F87B04FF0000815468A46ADF868
:1055A0001080FEF73DFD04004FF0FF3916D005A92D
:1055B000206802F0F3F9434EA0B121680122097876
:1055C000B2EB111F01D05F2007E010F10F0F01D1E6
:1055D000162002E0FDF7DCFC00B13060484607B061
:1055E000BDE8F08F059830B937A340F28B2243A174
:1055F00046A0FDF7D9F801210598FDF79DFA04466C
:10560000401C1BD0042C06D32FA34FF4257249A1B4
:105610003EA0FDF7C9F84D4800EB041B05F070FFF4
:1056200005990A8B8C61D24317B205F091FF05985A
:10563000406A98B1464805F0EAFF0AE0059802F092
:105640008BFB1720C9E7059800221146436A7F1E8D
:105650009847002FF7DC3E4805F0EAFFBAF1000F4B
:105660002DD065B3002304AA06A9059802F096FC84
:10567000070008D0059802F06FFB01215846FEF79D
:10568000B1FC3846A6E710208DF8000002208DF806
:105690000100BDF8100000F055F9ADF802000698C1
:1056A000CDE90108CDF80C809DF800002968814201
:1056B00000D92860694650462A68FAF72BFE204632
:1056C0008DE700001C0100202E2E2F4D6964646CB4
:1056D0006577617265732F54686972645F50617297
:1056E00074792F4C7749502F7372632F6170692F33
:1056F000736F636B6574732E630000006E65776370
:105700006F6E6E20213D204E554C4C0041737365E9
:105710007274696F6E2022257322206661696C6540
:1057200064206174206C696E6520256420696E2098
:1057300025730A00696E76616C696420736F636B10
:10574000657420696E64657800000000783300207D
:1057500060000020F8B516460C46FEF761FC050017
:105760004FF0FF3724D03046124E102804D1607815
:10577000022801D1A0070BD00FA340F2E2221BA107
:1057800021A0FDF711F86FF00F000DE030600FE081
:1057900060680090608800F0D5F802466946286885
:1057A00002F026FA002804D0FDF7F2FB0028EDD124
:1057B0003846F8BD1C0100202E2E2F4D6964646C04
:1057C0006577617265732F54686972645F506172A6
:1057D00074792F4C7749502F7372632F6170692F42
:1057E000736F636B6574732E630000006C77697070
:1057F0005F62696E643A20696E76616C69642061EB
:105800006464726573730000417373657274696FC9
:105810006E2022257322206661696C6564206174A4
:10582000206C696E6520256420696E2025730A004E
:1058300070B50025FEF7F4FB04004FF0FF361CD0D6
:10584000206840B100780121B1EB101F01D1012582
:105850000AE0002508E0606830B10CA34FF44572FF
:1058600017A11DA0FCF7A0FF206802F02DFD30B1AC
:10587000FDF78EFB08B122490860304670BD29460D
:105880002046FEF7AFFB002070BD00002E2E2F4DEE
:105890006964646C6577617265732F5468697264BA
:1058A0005F50617274792F4C7749502F7372632F58
:1058B0006170692F736F636B6574732E63000000F2
:1058C000736F636B2D3E6C61737464617461203D12
:1058D0003D204E554C4C0000417373657274696FE6
:1058E0006E2022257322206661696C6564206174D4
:1058F000206C696E6520256420696E2025730A007E
:105900001C01002010B504464068804705F093FE56
:10591000094A216852688B181A1AB2F1004F03D352
:1059200008442246054902E0044922461846BDE8DB
:10593000104005F01DBF0000FC00002005590008C4
:1059400000BA704740BA704710B505F029FE01F063
:1059500017FC01F0E7FE03F0E1F90CF0B5F806F0F2
:1059600075FFBDE8104005F07FBF000070B50C4624
:10597000FEF756FB05004FF0FF3619D0002C11DD65
:10598000FF2C00DBFF24E1B2286802F08DFB002829
:105990000FD029680122074C0978B2EB111F03D000
:1059A0005F2004E00024EEE7FDF7F2FA00B120608A
:1059B000304670BD1C01002010B5026804466FF02F
:1059C0000501506830B1127802F0F002102A09D0B7
:1059D000202A02D00846207110BDA289A1680BF0D0
:1059E000D9FFF8E7A289A16806F028F9F3E70000DB
:1059F00070B5016804466FF00A024B684878002BC6
:105A00004DD00B780125B5EB131F48D1237A032B1A
:105A100001D0022843D0032841D001283CD0D80728
:105A200002D0084602F0A7F92068006A30B11DA331
:105A300040F2BD7228A12FA0FCF7B6FE2168042019
:105A40004870206800210462206800F06DF800288A
:105A500024D020684078042806D012A340F2C272F5
:105A60002EA124A0FCF7A0FE2E4805F0E1FD206841
:105A700000210C3005F050FD2A4805F0C8FD2068D3
:105A8000407800280AD0BDE8704006A340F2C672F4
:105A900022A118A0FCF788BEFB20207170BD2271E6
:105AA00070BD00002E2E2F4D6964646C65776172A5
:105AB00065732F54686972645F50617274792F4CFA
:105AC0007749502F7372632F6170692F6170695F1E
:105AD0006D73672E63000000616C726561647920EC
